:0200000001F00D
:03002B00B290325E
:1000F00075A5FF75B69075A90375D90075E24075B1
:10010000300075310075340085313031153086FD91
:100110003087FD80F3E5302390011C7321CC212A28
:100120002179213C2166219121AD75C70175A0C7B8
:100130002086FD3086FD31DC7531022275A0C07548
:10014000340075C7007A1E75A04030870E515D756A
:10015000A0C0515D308704DAEE21623087FD753131
:1001600001227531042231DC78807A04E67600645D
:100170007BF208DAF77531012278807A04E2647B39
:10018000C3967600700708DAF475310322753105DD
:100190002275A08E0534E534C39406600CAA345150
:1001A00019DAFC31DC753102227531062275CCFF7B
:1001B00075CDFFD2ADD2CAD2AF75A083515D75A007
:1001C000FF515D20970280F17531002278807A041A
:1001D0007400647BF208DAF8753101227532007818
:1001E00080E532C394046030753300E533517F20DD
:1001F00087063087FD2087092086F43086FD20861B
:100200000C75A0FF515DA63308053280D4E533C3D9
:10021000940F053360CB80D322C0E0C0D0758E022E
:10022000758910C28FD28E7B64758BB0758D3C3012
:060230008FFDC28FDBF31D
:10023600D0E0D0D022C0E0C0D0758E02758910C241
:100246008FD28E7B64758BB0758D3C308FFDC28FDF
:10025600DBF3D0E0D0D022C0E0C0D0758E02758925
:1002660010C28FD28E7B0A758BB0758D3C308FFD98
:10027600C28FDBF3D0D0D0E02290100093F5A022FD
:10100000C0F9A4B0999282F880908883C6A1868E98
:00000001FF
